{
  "address": "0x08a758eB8ba70b6b5Df483087F293cD0311b7258",
  "abi": [
    {
      "inputs": [
        {
          "internalType": "uint32",
          "name": "_chainId",
          "type": "uint32"
        },
        {
          "components": [
            {
              "internalType": "address",
              "name": "_address",
              "type": "address"
            },
            {
              "internalType": "uint256",
              "name": "_quantity",
              "type": "uint256"
            },
            {
              "internalType": "uint32",
              "name": "_chainId",
              "type": "uint32"
            },
            {
              "internalType": "address",
              "name": "_contributor",
              "type": "address"
            },
            {
              "internalType": "address",
              "name": "_aggregator",
              "type": "address"
            }
          ],
          "internalType": "struct TokenQuantity[]",
          "name": "_requiredTokens",
          "type": "tuple[]"
        },
        {
          "internalType": "address",
          "name": "_outbox",
          "type": "address"
        },
        {
          "internalType": "address",
          "name": "_securityModule",
          "type": "address"
        }
      ],
      "stateMutability": "nonpayable",
      "type": "constructor"
    },
    {
      "anonymous": false,
      "inputs": [
        {
          "indexed": false,
          "internalType": "uint256",
          "name": "_vaultId",
          "type": "uint256"
        },
        {
          "indexed": false,
          "internalType": "address",
          "name": "_address",
          "type": "address"
        },
        {
          "indexed": false,
          "internalType": "uint256",
          "name": "_quantity",
          "type": "uint256"
        },
        {
          "indexed": false,
          "internalType": "uint32",
          "name": "_chainId",
          "type": "uint32"
        },
        {
          "indexed": false,
          "internalType": "address",
          "name": "_contributor",
          "type": "address"
        }
      ],
      "name": "Deposit",
      "type": "event"
    },
    {
      "inputs": [
        {
          "internalType": "uint256",
          "name": "",
          "type": "uint256"
        },
        {
          "internalType": "address",
          "name": "",
          "type": "address"
        }
      ],
      "name": "accountContributionsPerVault",
      "outputs": [
        {
          "internalType": "uint256",
          "name": "",
          "type": "uint256"
        }
      ],
      "stateMutability": "view",
      "type": "function"
    },
    {
      "inputs": [
        {
          "internalType": "address",
          "name": "",
          "type": "address"
        }
      ],
      "name": "addressToToken",
      "outputs": [
        {
          "internalType": "address",
          "name": "_address",
          "type": "address"
        },
        {
          "internalType": "uint256",
          "name": "_quantity",
          "type": "uint256"
        },
        {
          "internalType": "uint32",
          "name": "_chainId",
          "type": "uint32"
        },
        {
          "internalType": "address",
          "name": "_contributor",
          "type": "address"
        },
        {
          "internalType": "address",
          "name": "_aggregator",
          "type": "address"
        }
      ],
      "stateMutability": "view",
      "type": "function"
    },
    {
      "inputs": [],
      "name": "bridge",
      "outputs": [
        {
          "internalType": "address",
          "name": "",
          "type": "address"
        }
      ],
      "stateMutability": "view",
      "type": "function"
    },
    {
      "inputs": [],
      "name": "chainId",
      "outputs": [
        {
          "internalType": "uint32",
          "name": "",
          "type": "uint32"
        }
      ],
      "stateMutability": "view",
      "type": "function"
    },
    {
      "inputs": [
        {
          "components": [
            {
              "internalType": "uint256",
              "name": "vaultId",
              "type": "uint256"
            },
            {
              "components": [
                {
                  "internalType": "address",
                  "name": "_address",
                  "type": "address"
                },
                {
                  "internalType": "uint256",
                  "name": "_quantity",
                  "type": "uint256"
                },
                {
                  "internalType": "uint32",
                  "name": "_chainId",
                  "type": "uint32"
                },
                {
                  "internalType": "address",
                  "name": "_contributor",
                  "type": "address"
                },
                {
                  "internalType": "address",
                  "name": "_aggregator",
                  "type": "address"
                }
              ],
              "internalType": "struct TokenQuantity[]",
              "name": "tokens",
              "type": "tuple[]"
            }
          ],
          "internalType": "struct DepositInfo",
          "name": "_depositInfo",
          "type": "tuple"
        }
      ],
      "name": "depositAndNotify",
      "outputs": [],
      "stateMutability": "payable",
      "type": "function"
    },
    {
      "inputs": [],
      "name": "getRequiredTokens",
      "outputs": [
        {
          "components": [
            {
              "internalType": "address",
              "name": "_address",
              "type": "address"
            },
            {
              "internalType": "uint256",
              "name": "_quantity",
              "type": "uint256"
            },
            {
              "internalType": "uint32",
              "name": "_chainId",
              "type": "uint32"
            },
            {
              "internalType": "address",
              "name": "_contributor",
              "type": "address"
            },
            {
              "internalType": "address",
              "name": "_aggregator",
              "type": "address"
            }
          ],
          "internalType": "struct TokenQuantity[]",
          "name": "",
          "type": "tuple[]"
        }
      ],
      "stateMutability": "view",
      "type": "function"
    },
    {
      "inputs": [
        {
          "internalType": "uint256",
          "name": "_vaultId",
          "type": "uint256"
        }
      ],
      "name": "getVault",
      "outputs": [
        {
          "components": [
            {
              "components": [
                {
                  "internalType": "address",
                  "name": "_address",
                  "type": "address"
                },
                {
                  "internalType": "uint256",
                  "name": "_quantity",
                  "type": "uint256"
                },
                {
                  "internalType": "uint32",
                  "name": "_chainId",
                  "type": "uint32"
                },
                {
                  "internalType": "address",
                  "name": "_contributor",
                  "type": "address"
                },
                {
                  "internalType": "address",
                  "name": "_aggregator",
                  "type": "address"
                }
              ],
              "internalType": "struct TokenQuantity[]",
              "name": "_tokens",
              "type": "tuple[]"
            },
            {
              "internalType": "enum VaultState",
              "name": "state",
              "type": "uint8"
            }
          ],
          "internalType": "struct Vault",
          "name": "",
          "type": "tuple"
        }
      ],
      "stateMutability": "view",
      "type": "function"
    },
    {
      "inputs": [],
      "name": "getVaultStates",
      "outputs": [
        {
          "internalType": "enum VaultState[]",
          "name": "",
          "type": "uint8[]"
        }
      ],
      "stateMutability": "view",
      "type": "function"
    },
    {
      "inputs": [
        {
          "internalType": "uint32",
          "name": "_origin",
          "type": "uint32"
        },
        {
          "internalType": "bytes32",
          "name": "_sender",
          "type": "bytes32"
        },
        {
          "internalType": "bytes",
          "name": "_message",
          "type": "bytes"
        }
      ],
      "name": "handle",
      "outputs": [],
      "stateMutability": "payable",
      "type": "function"
    },
    {
      "inputs": [],
      "name": "mainChainLock",
      "outputs": [
        {
          "internalType": "address",
          "name": "",
          "type": "address"
        }
      ],
      "stateMutability": "view",
      "type": "function"
    },
    {
      "inputs": [
        {
          "internalType": "uint256",
          "name": "",
          "type": "uint256"
        }
      ],
      "name": "requiredTokens",
      "outputs": [
        {
          "internalType": "address",
          "name": "_address",
          "type": "address"
        },
        {
          "internalType": "uint256",
          "name": "_quantity",
          "type": "uint256"
        },
        {
          "internalType": "uint32",
          "name": "_chainId",
          "type": "uint32"
        },
        {
          "internalType": "address",
          "name": "_contributor",
          "type": "address"
        },
        {
          "internalType": "address",
          "name": "_aggregator",
          "type": "address"
        }
      ],
      "stateMutability": "view",
      "type": "function"
    },
    {
      "inputs": [],
      "name": "sideChainLock",
      "outputs": [
        {
          "internalType": "address",
          "name": "",
          "type": "address"
        }
      ],
      "stateMutability": "view",
      "type": "function"
    },
    {
      "inputs": [
        {
          "internalType": "uint256",
          "name": "",
          "type": "uint256"
        }
      ],
      "name": "vaults",
      "outputs": [
        {
          "internalType": "enum VaultState",
          "name": "state",
          "type": "uint8"
        }
      ],
      "stateMutability": "view",
      "type": "function"
    }
  ],
  "transactionHash": "0x541a823f462a964510c7c3b5bbdfcbc907865068923ec106917ab47648cb7b9a",
  "args": [
    1440002,
    [
      {
        "_address": "0x2C5e23Cdbff221B707D1a42577764586791B5074",
        "_quantity": "100000000000000000000",
        "_chainId": 11155111,
        "_contributor": "0x2a1F5eB3e84e58e6F1e565306298B9dE1273f203",
        "_aggregator": "0x2a1F5eB3e84e58e6F1e565306298B9dE1273f203"
      }
    ],
    "0xfFAEF09B3cd11D9b20d1a19bECca54EEC2884766",
    "0xa717195377ad63B5EF830548492878ED9A1528D0"
  ],
  "numDeployments": 3,
  "solcInputHash": "d7ec6f9d4d2f4eff624a6bf538ae37a1",
  "bytecode": "0x60806040523480156200001157600080fd5b5060405162001cad38038062001cad8339810160408190526200003491620002d1565b6003805463ffffffff861663ffffffff19909116179055600480546001600160a01b038085166001600160a01b031992831617909255600580549284169290911691909117905560005b8351811015620002205760018482815181106200009f576200009f62000426565b602090810291909101810151825460018082018555600094855293839020825160049092020180546001600160a01b03199081166001600160a01b0393841617825593830151948101949094556040820151600285018054606085015163ffffffff9093166001600160c01b03199091161764010000000092841692909202919091179055608090910151600390930180549092169216919091179055835184908290811062000153576200015362000426565b60200260200101516002600086848151811062000174576200017462000426565b602090810291909101810151516001600160a01b039081168352828201939093526040918201600020845181549085166001600160a01b03199182161782559185015160018201559184015160028301805460608701518616640100000000026001600160c01b031990911663ffffffff90931692909217919091179055608090930151600390910180549190921692169190911790558062000217816200043c565b9150506200007e565b505050505062000464565b805163ffffffff811681146200024057600080fd5b919050565b634e487b7160e01b600052604160045260246000fd5b60405160a081016001600160401b038111828210171562000280576200028062000245565b60405290565b604051601f8201601f191681016001600160401b0381118282101715620002b157620002b162000245565b604052919050565b80516001600160a01b03811681146200024057600080fd5b6000806000806080808688031215620002e957600080fd5b620002f4866200022b565b602087810151919650906001600160401b03808211156200031457600080fd5b818901915089601f8301126200032957600080fd5b8151818111156200033e576200033e62000245565b6200034e848260051b0162000286565b818152848101925060a091820284018501918c8311156200036e57600080fd5b938501935b82851015620003f35780858e0312156200038d5760008081fd5b620003976200025b565b620003a286620002b9565b815286860151878201526040620003bb8188016200022b565b908201526060620003ce878201620002b9565b90820152620003df868901620002b9565b818901528452938401939285019262000373565b508098505050505050506200040b60408601620002b9565b91506200041b60608601620002b9565b905092959194509250565b634e487b7160e01b600052603260045260246000fd5b6000600182016200045d57634e487b7160e01b600052601160045260246000fd5b5060010190565b61183980620004746000396000f3fe6080604052600436106100c25760003560e01c80638c64ea4a1161007f5780639a8a0592116100595780639a8a0592146102c95780639c58a5a4146102fb578063cca3ce2b1461031b578063e78cea921461033d57600080fd5b80638c64ea4a1461023c5780639403b6341461027c578063956a45a6146102a957600080fd5b8063014372eb146100c7578063309bfe4a14610112578063437212201461013457806356d5d4751461014957806369abaac91461015c5780636b8cf65e146101fd575b600080fd5b3480156100d357600080fd5b506100ff6100e2366004611197565b600860209081526000928352604080842090915290825290205481565b6040519081526020015b60405180910390f35b34801561011e57600080fd5b5061012761035d565b60405161010991906111fb565b610147610142366004611246565b610405565b005b61014761015736600461129c565b61057b565b34801561016857600080fd5b506101bd610177366004611323565b600260208190526000918252604090912080546001820154928201546003909201546001600160a01b03918216939263ffffffff811692600160201b9091048116911685565b604080516001600160a01b039687168152602081019590955263ffffffff909316928401929092528316606083015291909116608082015260a001610109565b34801561020957600080fd5b5060035461022490600160201b90046001600160a01b031681565b6040516001600160a01b039091168152602001610109565b34801561024857600080fd5b5061026f61025736600461133e565b60096020526000908152604090206001015460ff1681565b6040516101099190611357565b34801561028857600080fd5b5061029c61029736600461133e565b610658565b60405161010991906113e4565b3480156102b557600080fd5b506101bd6102c436600461133e565b610759565b3480156102d557600080fd5b506003546102e69063ffffffff1681565b60405163ffffffff9091168152602001610109565b34801561030757600080fd5b50600054610224906001600160a01b031681565b34801561032757600080fd5b506103306107b1565b604051610109919061141c565b34801561034957600080fd5b50600654610224906001600160a01b031681565b60408051605a808252610b6082019092526060916000919060208201610b408036833701905050905060005b81518110156103ff57600081815260096020526040902060010154825160ff909116908390839081106103be576103be611445565b602002602001019060038111156103d7576103d76111c3565b908160038111156103ea576103ea6111c3565b905250806103f781611471565b915050610389565b50919050565b61041f61041182611621565b60035463ffffffff16610856565b6003546004546040516001600160a01b03600160201b840481169360009390911691639c42bd189163ffffffff1690859061045e90889060200161162d565b6040516020818303038152906040526040518463ffffffff1660e01b815260040161048b93929190611715565b602060405180830381865afa1580156104a8573d6000803e3d6000fd5b505050506040513d601f19601f820116820180604052508101906104cc9190611778565b6004546003546040519293506001600160a01b039091169163fa31de0191849163ffffffff90911690869061050590899060200161162d565b6040516020818303038152906040526040518563ffffffff1660e01b815260040161053293929190611715565b60206040518083038185885af1158015610550573d6000803e3d6000fd5b50505050506040513d601f19601f820116820180604052508101906105759190611778565b50505050565b6000546001600160a01b0316836001600160a01b0316146105e35760405162461bcd60e51b815260206004820152601f60248201527f53656e646572206973206e6f74207468652073696465436861696e4c6f636b0060448201526064015b60405180910390fd5b60006105f182840184611791565b90506000816020015160008151811061060c5761060c611445565b60200260200101516040015190506000826020015160008151811061063357610633611445565b602002602001015160600151905061064f836000015182610fd8565b50505050505050565b6040805180820190915260608152600060208201526000828152600960209081526040808320815181546060948102820185018452928101838152909491938593919285929185015b828210156107195760008481526020908190206040805160a0810182526004860290920180546001600160a01b03908116845260018083015485870152600283015463ffffffff811694860194909452600160201b9093048116606085015260039091015416608083015290835290920191016106a1565b50505090825250600182015460209091019060ff16600381111561073f5761073f6111c3565b6003811115610750576107506111c3565b90525092915050565b6001818154811061076957600080fd5b600091825260209091206004909102018054600182015460028301546003909301546001600160a01b039283169450909263ffffffff811692600160201b9091048116911685565b60606001805480602002602001604051908101604052809291908181526020016000905b8282101561084d5760008481526020908190206040805160a0810182526004860290920180546001600160a01b03908116845260018083015485870152600283015463ffffffff811694860194909452600160201b9093048116606085015260039091015416608083015290835290920191016107d5565b50505050905090565b81516020830151600160008381526009602052604090206001015460ff166003811115610885576108856111c3565b14806108b4575060008281526009602052604081206001015460ff1660038111156108b2576108b26111c3565b145b6109005760405162461bcd60e51b815260206004820152601a60248201527f5661756c74206973206e6f74206f70656e206f7220656d70747900000000000060448201526064016105da565b60008281526009602052604081206001015460ff166003811115610926576109266111c3565b03610a995760005b600154811015610a7957600960008481526020019081526020016000206000016040518060a001604052806001848154811061096c5761096c611445565b600091825260208083206004909202909101546001600160a01b03168352820181905263ffffffff88166040830152606082015260018054608090920191859081106109ba576109ba611445565b60009182526020808320600360049384029091018101546001600160a01b039081169095528654600181810189559785529382902086519490930290920180549385166001600160a01b03199485161781559085015195810195909555604084015160028601805460608701518616600160201b026001600160c01b031990911663ffffffff90931692909217919091179055608090930151939092018054939091169290911691909117905580610a7181611471565b91505061092e565b5060008281526009602052604090206001908101805460ff191690911790555b60005b8151811015610f2b578363ffffffff16828281518110610abe57610abe611445565b60200260200101516040015163ffffffff1614610b435760405162461bcd60e51b815260206004820152603860248201527f546f6b656e20636861696e496420646f6573206e6f74206d617463682074686560448201527f20636861696e4964206f662074686520636f6e7472616374000000000000000060648201526084016105da565b60026000838381518110610b5957610b59611445565b6020026020010151600001516001600160a01b03166001600160a01b0316815260200190815260200160002060010154600960008581526020019081526020016000206000018281548110610bb057610bb0611445565b906000526020600020906004020160010154838381518110610bd457610bd4611445565b602002602001015160200151610bea91906117ce565b1115610c4b5760405162461bcd60e51b815260206004820152602a60248201527f546f6b656e207175616e746974792065786365656473207468652072657175696044820152691c995908185b5bdd5b9d60b21b60648201526084016105da565b818181518110610c5d57610c5d611445565b6020026020010151600001516001600160a01b03166323b872dd838381518110610c8957610c89611445565b60200260200101516060015130858581518110610ca857610ca8611445565b60209081029190910181015101516040516001600160e01b031960e086901b1681526001600160a01b03938416600482015292909116602483015260448201526064016020604051808303816000875af1158015610d0a573d6000803e3d6000fd5b505050506040513d601f19601f82011682018060405250810190610d2e91906117e1565b50818181518110610d4157610d41611445565b602002602001015160200151600960008581526020019081526020016000206000018281548110610d7457610d74611445565b90600052602060002090600402016001016000828254610d9491906117ce565b925050819055507f80590f9d7015c327349ea64242fc29353801fcad956721a0e45f725338db06f483838381518110610dcf57610dcf611445565b602002602001015160000151848481518110610ded57610ded611445565b602002602001015160200151858581518110610e0b57610e0b611445565b602002602001015160400151868681518110610e2957610e29611445565b602002602001015160600151604051610e739594939291909485526001600160a01b039384166020860152604085019290925263ffffffff16606084015216608082015260a00190565b60405180910390a160008381526008602090815260408083203384529091528120549003610eca5760008381526007602090815260408220805460018101825590835291200180546001600160a01b031916331790555b818181518110610edc57610edc611445565b6020908102919091018101518101516000858152600883526040808220338352909352918220805491929091610f139084906117ce565b90915550819050610f2381611471565b915050610a9c565b5060005b600154811015610fb65760018181548110610f4c57610f4c611445565b906000526020600020906004020160010154600960008581526020019081526020016000206000018281548110610f8557610f85611445565b9060005260206000209060040201600101541015610fa4575050505050565b80610fae81611471565b915050610f2f565b50506000908152600960205260409020600101805460ff191660021790555050565b600260008381526009602052604090206001015460ff166003811115611000576110006111c3565b146110435760405162461bcd60e51b815260206004820152601360248201527215985d5b1d081a5cc81b9bdd081b5a5b9d1959606a1b60448201526064016105da565b60005b60008381526009602052604090205481101561115b57600083815260096020526040902080548290811061107c5761107c611445565b600091825260208083206004909202909101548583526009909152604090912080546001600160a01b039092169163a9059cbb918591859081106110c2576110c2611445565b9060005260206000209060040201600101546040518363ffffffff1660e01b81526004016111059291906001600160a01b03929092168252602082015260400190565b6020604051808303816000875af1158015611124573d6000803e3d6000fd5b505050506040513d601f19601f8201168201806040525081019061114891906117e1565b508061115381611471565b915050611046565b50506000908152600960205260409020600101805460ff19166003179055565b80356001600160a01b038116811461119257600080fd5b919050565b600080604083850312156111aa57600080fd5b823591506111ba6020840161117b565b90509250929050565b634e487b7160e01b600052602160045260246000fd5b600481106111f757634e487b7160e01b600052602160045260246000fd5b9052565b6020808252825182820181905260009190848201906040850190845b8181101561123a5761122a8385516111d9565b9284019291840191600101611217565b50909695505050505050565b60006020828403121561125857600080fd5b813567ffffffffffffffff81111561126f57600080fd5b82016040818503121561128157600080fd5b9392505050565b803563ffffffff8116811461119257600080fd5b600080600080606085870312156112b257600080fd5b6112bb85611288565b935060208501359250604085013567ffffffffffffffff808211156112df57600080fd5b818701915087601f8301126112f357600080fd5b81358181111561130257600080fd5b88602082850101111561131457600080fd5b95989497505060200194505050565b60006020828403121561133557600080fd5b6112818261117b565b60006020828403121561135057600080fd5b5035919050565b6020810161136582846111d9565b92915050565b600081518084526020808501945080840160005b838110156113d957815180516001600160a01b03908116895284820151858a015260408083015163ffffffff16908a01526060808301518216908a0152608091820151169088015260a0909601959082019060010161137f565b509495945050505050565b602081526000825160406020840152611400606084018261136b565b9050602084015161141460408501826111d9565b509392505050565b602081526000611281602083018461136b565b634e487b7160e01b600052604160045260246000fd5b634e487b7160e01b600052603260045260246000fd5b634e487b7160e01b600052601160045260246000fd5b6000600182016114835761148361145b565b5060010190565b6040805190810167ffffffffffffffff811182821017156114ad576114ad61142f565b60405290565b60405160a0810167ffffffffffffffff811182821017156114ad576114ad61142f565b604051601f8201601f1916810167ffffffffffffffff811182821017156114ff576114ff61142f565b604052919050565b6000604080838503121561151a57600080fd5b61152261148a565b91508235825260208084013567ffffffffffffffff8082111561154457600080fd5b818601915086601f83011261155857600080fd5b81358181111561156a5761156a61142f565b611578848260051b016114d6565b818152848101925060a091820284018501918983111561159757600080fd5b938501935b8285101561160f5780858b0312156115b45760008081fd5b6115bc6114b3565b6115c58661117b565b815286860135878201526115da888701611288565b8882015260606115eb81880161117b565b9082015260806115fc87820161117b565b908201528452938401939285019261159c565b50808588015250505050505092915050565b60006113653683611507565b60006020808352606080840185358386015282860135601e1987360301811261165557600080fd5b8601838101903567ffffffffffffffff81111561167157600080fd5b60a0808202360383131561168457600080fd5b60408881018190529382905260809384890160005b84811015611706576001600160a01b03806116b38861117b565b168352898701358a84015263ffffffff6116ce858901611288565b1684840152806116df8a890161117b565b1689840152806116f089890161117b565b1683890152509483019490830190600101611699565b509a9950505050505050505050565b63ffffffff8416815260006020848184015260606040840152835180606085015260005b8181101561175557858101830151858201608001528201611739565b506000608082860101526080601f19601f83011685010192505050949350505050565b60006020828403121561178a57600080fd5b5051919050565b6000602082840312156117a357600080fd5b813567ffffffffffffffff8111156117ba57600080fd5b6117c684828501611507565b949350505050565b808201808211156113655761136561145b565b6000602082840312156117f357600080fd5b8151801515811461128157600080fdfea2646970667358221220e67648e6449409d421aba93de73f302df94ea3162eb9b94884c75a61aaaa60e164736f6c63430008110033",
  "devdoc": {
    "kind": "dev",
    "methods": {},
    "version": 1
  },
  "userdoc": {
    "kind": "user",
    "methods": {},
    "version": 1
  },
  "storageLayout": {
    "storage": [
      {
        "astId": 1061,
        "contract": "contracts/ETFLockingChain.sol:ETFLockingChain",
        "label": "sideChainLock",
        "offset": 0,
        "slot": "0",
        "type": "t_address"
      },
      {
        "astId": 1065,
        "contract": "contracts/ETFLockingChain.sol:ETFLockingChain",
        "label": "requiredTokens",
        "offset": 0,
        "slot": "1",
        "type": "t_array(t_struct(TokenQuantity)1030_storage)dyn_storage"
      },
      {
        "astId": 1070,
        "contract": "contracts/ETFLockingChain.sol:ETFLockingChain",
        "label": "addressToToken",
        "offset": 0,
        "slot": "2",
        "type": "t_mapping(t_address,t_struct(TokenQuantity)1030_storage)"
      },
      {
        "astId": 1072,
        "contract": "contracts/ETFLockingChain.sol:ETFLockingChain",
        "label": "chainId",
        "offset": 0,
        "slot": "3",
        "type": "t_uint32"
      },
      {
        "astId": 1074,
        "contract": "contracts/ETFLockingChain.sol:ETFLockingChain",
        "label": "mainChainLock",
        "offset": 4,
        "slot": "3",
        "type": "t_address"
      },
      {
        "astId": 1077,
        "contract": "contracts/ETFLockingChain.sol:ETFLockingChain",
        "label": "outbox",
        "offset": 0,
        "slot": "4",
        "type": "t_contract(IMailbox)247"
      },
      {
        "astId": 1080,
        "contract": "contracts/ETFLockingChain.sol:ETFLockingChain",
        "label": "securityModule",
        "offset": 0,
        "slot": "5",
        "type": "t_contract(IInterchainSecurityModule)73"
      },
      {
        "astId": 1082,
        "contract": "contracts/ETFLockingChain.sol:ETFLockingChain",
        "label": "bridge",
        "offset": 0,
        "slot": "6",
        "type": "t_address"
      },
      {
        "astId": 1087,
        "contract": "contracts/ETFLockingChain.sol:ETFLockingChain",
        "label": "contributorsByVault",
        "offset": 0,
        "slot": "7",
        "type": "t_mapping(t_uint256,t_array(t_address)dyn_storage)"
      },
      {
        "astId": 1093,
        "contract": "contracts/ETFLockingChain.sol:ETFLockingChain",
        "label": "accountContributionsPerVault",
        "offset": 0,
        "slot": "8",
        "type": "t_mapping(t_uint256,t_mapping(t_address,t_uint256))"
      },
      {
        "astId": 1110,
        "contract": "contracts/ETFLockingChain.sol:ETFLockingChain",
        "label": "vaults",
        "offset": 0,
        "slot": "9",
        "type": "t_mapping(t_uint256,t_struct(Vault)1038_storage)"
      }
    ],
    "types": {
      "t_address": {
        "encoding": "inplace",
        "label": "address",
        "numberOfBytes": "20"
      },
      "t_array(t_address)dyn_storage": {
        "base": "t_address",
        "encoding": "dynamic_array",
        "label": "address[]",
        "numberOfBytes": "32"
      },
      "t_array(t_struct(TokenQuantity)1030_storage)dyn_storage": {
        "base": "t_struct(TokenQuantity)1030_storage",
        "encoding": "dynamic_array",
        "label": "struct TokenQuantity[]",
        "numberOfBytes": "32"
      },
      "t_contract(IInterchainSecurityModule)73": {
        "encoding": "inplace",
        "label": "contract IInterchainSecurityModule",
        "numberOfBytes": "20"
      },
      "t_contract(IMailbox)247": {
        "encoding": "inplace",
        "label": "contract IMailbox",
        "numberOfBytes": "20"
      },
      "t_enum(VaultState)1043": {
        "encoding": "inplace",
        "label": "enum VaultState",
        "numberOfBytes": "1"
      },
      "t_mapping(t_address,t_struct(TokenQuantity)1030_storage)": {
        "encoding": "mapping",
        "key": "t_address",
        "label": "mapping(address => struct TokenQuantity)",
        "numberOfBytes": "32",
        "value": "t_struct(TokenQuantity)1030_storage"
      },
      "t_mapping(t_address,t_uint256)": {
        "encoding": "mapping",
        "key": "t_address",
        "label": "mapping(address => uint256)",
        "numberOfBytes": "32",
        "value": "t_uint256"
      },
      "t_mapping(t_uint256,t_array(t_address)dyn_storage)": {
        "encoding": "mapping",
        "key": "t_uint256",
        "label": "mapping(uint256 => address[])",
        "numberOfBytes": "32",
        "value": "t_array(t_address)dyn_storage"
      },
      "t_mapping(t_uint256,t_mapping(t_address,t_uint256))": {
        "encoding": "mapping",
        "key": "t_uint256",
        "label": "mapping(uint256 => mapping(address => uint256))",
        "numberOfBytes": "32",
        "value": "t_mapping(t_address,t_uint256)"
      },
      "t_mapping(t_uint256,t_struct(Vault)1038_storage)": {
        "encoding": "mapping",
        "key": "t_uint256",
        "label": "mapping(uint256 => struct Vault)",
        "numberOfBytes": "32",
        "value": "t_struct(Vault)1038_storage"
      },
      "t_struct(TokenQuantity)1030_storage": {
        "encoding": "inplace",
        "label": "struct TokenQuantity",
        "members": [
          {
            "astId": 1021,
            "contract": "contracts/ETFLockingChain.sol:ETFLockingChain",
            "label": "_address",
            "offset": 0,
            "slot": "0",
            "type": "t_address"
          },
          {
            "astId": 1023,
            "contract": "contracts/ETFLockingChain.sol:ETFLockingChain",
            "label": "_quantity",
            "offset": 0,
            "slot": "1",
            "type": "t_uint256"
          },
          {
            "astId": 1025,
            "contract": "contracts/ETFLockingChain.sol:ETFLockingChain",
            "label": "_chainId",
            "offset": 0,
            "slot": "2",
            "type": "t_uint32"
          },
          {
            "astId": 1027,
            "contract": "contracts/ETFLockingChain.sol:ETFLockingChain",
            "label": "_contributor",
            "offset": 4,
            "slot": "2",
            "type": "t_address"
          },
          {
            "astId": 1029,
            "contract": "contracts/ETFLockingChain.sol:ETFLockingChain",
            "label": "_aggregator",
            "offset": 0,
            "slot": "3",
            "type": "t_address"
          }
        ],
        "numberOfBytes": "128"
      },
      "t_struct(Vault)1038_storage": {
        "encoding": "inplace",
        "label": "struct Vault",
        "members": [
          {
            "astId": 1034,
            "contract": "contracts/ETFLockingChain.sol:ETFLockingChain",
            "label": "_tokens",
            "offset": 0,
            "slot": "0",
            "type": "t_array(t_struct(TokenQuantity)1030_storage)dyn_storage"
          },
          {
            "astId": 1037,
            "contract": "contracts/ETFLockingChain.sol:ETFLockingChain",
            "label": "state",
            "offset": 0,
            "slot": "1",
            "type": "t_enum(VaultState)1043"
          }
        ],
        "numberOfBytes": "64"
      },
      "t_uint256": {
        "encoding": "inplace",
        "label": "uint256",
        "numberOfBytes": "32"
      },
      "t_uint32": {
        "encoding": "inplace",
        "label": "uint32",
        "numberOfBytes": "4"
      }
    }
  }
}