{
  "address": "0x2872f4107E9234fC5d9066e5b30C175d94A66DEB",
  "abi": [
    {
      "inputs": [
        {
          "internalType": "uint32",
          "name": "_chainId",
          "type": "uint32"
        },
        {
          "components": [
            {
              "internalType": "address",
              "name": "_address",
              "type": "address"
            },
            {
              "internalType": "uint256",
              "name": "_quantity",
              "type": "uint256"
            },
            {
              "internalType": "uint32",
              "name": "_chainId",
              "type": "uint32"
            },
            {
              "internalType": "address",
              "name": "_contributor",
              "type": "address"
            },
            {
              "internalType": "address",
              "name": "_aggregator",
              "type": "address"
            }
          ],
          "internalType": "struct TokenQuantity[]",
          "name": "_requiredTokens",
          "type": "tuple[]"
        },
        {
          "internalType": "address",
          "name": "_etfToken",
          "type": "address"
        },
        {
          "internalType": "uint256",
          "name": "_etfTokenPerVault",
          "type": "uint256"
        }
      ],
      "stateMutability": "nonpayable",
      "type": "constructor"
    },
    {
      "anonymous": false,
      "inputs": [
        {
          "indexed": false,
          "internalType": "uint256",
          "name": "_vaultId",
          "type": "uint256"
        },
        {
          "indexed": false,
          "internalType": "address",
          "name": "_address",
          "type": "address"
        },
        {
          "indexed": false,
          "internalType": "uint256",
          "name": "_quantity",
          "type": "uint256"
        },
        {
          "indexed": false,
          "internalType": "uint32",
          "name": "_chainId",
          "type": "uint32"
        },
        {
          "indexed": false,
          "internalType": "address",
          "name": "_contributor",
          "type": "address"
        }
      ],
      "name": "Deposit",
      "type": "event"
    },
    {
      "inputs": [
        {
          "internalType": "uint256",
          "name": "",
          "type": "uint256"
        },
        {
          "internalType": "address",
          "name": "",
          "type": "address"
        }
      ],
      "name": "accountContributionsPerVault",
      "outputs": [
        {
          "internalType": "uint256",
          "name": "",
          "type": "uint256"
        }
      ],
      "stateMutability": "view",
      "type": "function"
    },
    {
      "inputs": [
        {
          "internalType": "address",
          "name": "",
          "type": "address"
        }
      ],
      "name": "addressToToken",
      "outputs": [
        {
          "internalType": "address",
          "name": "_address",
          "type": "address"
        },
        {
          "internalType": "uint256",
          "name": "_quantity",
          "type": "uint256"
        },
        {
          "internalType": "uint32",
          "name": "_chainId",
          "type": "uint32"
        },
        {
          "internalType": "address",
          "name": "_contributor",
          "type": "address"
        },
        {
          "internalType": "address",
          "name": "_aggregator",
          "type": "address"
        }
      ],
      "stateMutability": "view",
      "type": "function"
    },
    {
      "inputs": [
        {
          "internalType": "uint256",
          "name": "_vaultId",
          "type": "uint256"
        }
      ],
      "name": "burn",
      "outputs": [],
      "stateMutability": "nonpayable",
      "type": "function"
    },
    {
      "inputs": [],
      "name": "chainId",
      "outputs": [
        {
          "internalType": "uint32",
          "name": "",
          "type": "uint32"
        }
      ],
      "stateMutability": "view",
      "type": "function"
    },
    {
      "inputs": [
        {
          "components": [
            {
              "internalType": "uint256",
              "name": "vaultId",
              "type": "uint256"
            },
            {
              "components": [
                {
                  "internalType": "address",
                  "name": "_address",
                  "type": "address"
                },
                {
                  "internalType": "uint256",
                  "name": "_quantity",
                  "type": "uint256"
                },
                {
                  "internalType": "uint32",
                  "name": "_chainId",
                  "type": "uint32"
                },
                {
                  "internalType": "address",
                  "name": "_contributor",
                  "type": "address"
                },
                {
                  "internalType": "address",
                  "name": "_aggregator",
                  "type": "address"
                }
              ],
              "internalType": "struct TokenQuantity[]",
              "name": "tokens",
              "type": "tuple[]"
            }
          ],
          "internalType": "struct DepositInfo",
          "name": "_depositInfo",
          "type": "tuple"
        }
      ],
      "name": "deposit",
      "outputs": [],
      "stateMutability": "nonpayable",
      "type": "function"
    },
    {
      "inputs": [],
      "name": "etfToken",
      "outputs": [
        {
          "internalType": "address",
          "name": "",
          "type": "address"
        }
      ],
      "stateMutability": "view",
      "type": "function"
    },
    {
      "inputs": [],
      "name": "etfTokenPerVault",
      "outputs": [
        {
          "internalType": "uint256",
          "name": "",
          "type": "uint256"
        }
      ],
      "stateMutability": "view",
      "type": "function"
    },
    {
      "inputs": [],
      "name": "getRequiredTokens",
      "outputs": [
        {
          "components": [
            {
              "internalType": "address",
              "name": "_address",
              "type": "address"
            },
            {
              "internalType": "uint256",
              "name": "_quantity",
              "type": "uint256"
            },
            {
              "internalType": "uint32",
              "name": "_chainId",
              "type": "uint32"
            },
            {
              "internalType": "address",
              "name": "_contributor",
              "type": "address"
            },
            {
              "internalType": "address",
              "name": "_aggregator",
              "type": "address"
            }
          ],
          "internalType": "struct TokenQuantity[]",
          "name": "",
          "type": "tuple[]"
        }
      ],
      "stateMutability": "view",
      "type": "function"
    },
    {
      "inputs": [
        {
          "internalType": "uint256",
          "name": "_vaultId",
          "type": "uint256"
        }
      ],
      "name": "getVault",
      "outputs": [
        {
          "components": [
            {
              "components": [
                {
                  "internalType": "address",
                  "name": "_address",
                  "type": "address"
                },
                {
                  "internalType": "uint256",
                  "name": "_quantity",
                  "type": "uint256"
                },
                {
                  "internalType": "uint32",
                  "name": "_chainId",
                  "type": "uint32"
                },
                {
                  "internalType": "address",
                  "name": "_contributor",
                  "type": "address"
                },
                {
                  "internalType": "address",
                  "name": "_aggregator",
                  "type": "address"
                }
              ],
              "internalType": "struct TokenQuantity[]",
              "name": "_tokens",
              "type": "tuple[]"
            },
            {
              "internalType": "enum VaultState",
              "name": "state",
              "type": "uint8"
            }
          ],
          "internalType": "struct Vault",
          "name": "",
          "type": "tuple"
        }
      ],
      "stateMutability": "view",
      "type": "function"
    },
    {
      "inputs": [],
      "name": "getVaultStates",
      "outputs": [
        {
          "internalType": "enum VaultState[]",
          "name": "",
          "type": "uint8[]"
        }
      ],
      "stateMutability": "view",
      "type": "function"
    },
    {
      "inputs": [
        {
          "internalType": "uint32",
          "name": "_origin",
          "type": "uint32"
        },
        {
          "internalType": "bytes32",
          "name": "_sender",
          "type": "bytes32"
        },
        {
          "internalType": "bytes",
          "name": "_message",
          "type": "bytes"
        }
      ],
      "name": "handle",
      "outputs": [],
      "stateMutability": "payable",
      "type": "function"
    },
    {
      "inputs": [
        {
          "internalType": "uint256",
          "name": "",
          "type": "uint256"
        }
      ],
      "name": "requiredTokens",
      "outputs": [
        {
          "internalType": "address",
          "name": "_address",
          "type": "address"
        },
        {
          "internalType": "uint256",
          "name": "_quantity",
          "type": "uint256"
        },
        {
          "internalType": "uint32",
          "name": "_chainId",
          "type": "uint32"
        },
        {
          "internalType": "address",
          "name": "_contributor",
          "type": "address"
        },
        {
          "internalType": "address",
          "name": "_aggregator",
          "type": "address"
        }
      ],
      "stateMutability": "view",
      "type": "function"
    },
    {
      "inputs": [
        {
          "internalType": "uint256",
          "name": "_vaultId",
          "type": "uint256"
        },
        {
          "internalType": "enum VaultState",
          "name": "_state",
          "type": "uint8"
        }
      ],
      "name": "setVaultState",
      "outputs": [],
      "stateMutability": "nonpayable",
      "type": "function"
    },
    {
      "inputs": [],
      "name": "sideChainLock",
      "outputs": [
        {
          "internalType": "address",
          "name": "",
          "type": "address"
        }
      ],
      "stateMutability": "view",
      "type": "function"
    },
    {
      "inputs": [
        {
          "internalType": "uint256",
          "name": "",
          "type": "uint256"
        }
      ],
      "name": "vaults",
      "outputs": [
        {
          "internalType": "enum VaultState",
          "name": "state",
          "type": "uint8"
        }
      ],
      "stateMutability": "view",
      "type": "function"
    }
  ],
  "transactionHash": "0x815cc945b8492050d14714ddf035d06b8eeee9e3515adf94dadb17df1b605218",
  "args": [
    1440002,
    [
      {
        "_address": "0x0b3A4FA2eBc31F932a9A4CE83E3ba217AEeF4281",
        "_quantity": "100000000000000000000",
        "_chainId": 1440002,
        "_contributor": "0x2a1F5eB3e84e58e6F1e565306298B9dE1273f203",
        "_aggregator": "0xD6BF4a7000A49A227202C0ae8e1af1BdA871D522"
      },
      {
        "_address": "0x8dd6A934903d39101782fa18b4135a6BA89a7b6b",
        "_quantity": "200000000000000000000",
        "_chainId": 1440002,
        "_contributor": "0x2a1F5eB3e84e58e6F1e565306298B9dE1273f203",
        "_aggregator": "0xF1ab521Ba394C38A7e21355672F257F34cA9De58"
      },
      {
        "_address": "0x2C5e23Cdbff221B707D1a42577764586791B5074",
        "_quantity": "100000000000000000000",
        "_chainId": 11155111,
        "_contributor": "0x2a1F5eB3e84e58e6F1e565306298B9dE1273f203",
        "_aggregator": "0x005FC4A3799Ed0dF38aB01547f1afAB7CB580953"
      }
    ],
    "0xD2d281277fA7A382dAA39ffee3dA562aFe0526d3",
    "100000000000000000000"
  ],
  "numDeployments": 6,
  "solcInputHash": "fc6f5d5379beacf90dca09c284df9f21",
  "bytecode": "0x60806040523480156200001157600080fd5b5060405162001d9438038062001d948339810160408190526200003491620002bb565b600380546001600160a01b038416640100000000026001600160c01b031990911663ffffffff871617179055600481905560005b83518110156200020a57600184828151811062000089576200008962000405565b602090810291909101810151825460018082018555600094855293839020825160049092020180546001600160a01b03199081166001600160a01b0393841617825593830151948101949094556040820151600285018054606085015163ffffffff9093166001600160c01b0319909116176401000000009284169290920291909117905560809091015160039093018054909216921691909117905583518490829081106200013d576200013d62000405565b6020026020010151600260008684815181106200015e576200015e62000405565b602090810291909101810151516001600160a01b039081168352828201939093526040918201600020845181549085166001600160a01b03199182161782559185015160018201559184015160028301805460608701518616640100000000026001600160c01b031990911663ffffffff90931692909217919091179055608090930151600390910180549190921692169190911790558062000201816200041b565b91505062000068565b505050505062000443565b805163ffffffff811681146200022a57600080fd5b919050565b634e487b7160e01b600052604160045260246000fd5b60405160a081016001600160401b03811182821017156200026a576200026a6200022f565b60405290565b604051601f8201601f191681016001600160401b03811182821017156200029b576200029b6200022f565b604052919050565b80516001600160a01b03811681146200022a57600080fd5b6000806000806080808688031215620002d357600080fd5b620002de8662000215565b602087810151919650906001600160401b0380821115620002fe57600080fd5b818901915089601f8301126200031357600080fd5b8151818111156200032857620003286200022f565b62000338848260051b0162000270565b818152848101925060a091820284018501918c8311156200035857600080fd5b938501935b82851015620003dd5780858e031215620003775760008081fd5b6200038162000245565b6200038c86620002a3565b815286860151878201526040620003a581880162000215565b908201526060620003b8878201620002a3565b90820152620003c9868901620002a3565b81890152845293840193928501926200035d565b50809850505050505050620003f560408601620002a3565b6060959095015193969295505050565b634e487b7160e01b600052603260045260246000fd5b6000600182016200043c57634e487b7160e01b600052601160045260246000fd5b5060010190565b61194180620004536000396000f3fe6080604052600436106100e85760003560e01c806369abaac91161008a5780639a8a0592116100595780639a8a0592146103135780639c58a5a414610345578063cca3ce2b1461037d578063eb6a9aa01461039f57600080fd5b806369abaac9146101e55780638c64ea4a146102865780639403b634146102c6578063956a45a6146102f357600080fd5b8063309bfe4a116100c6578063309bfe4a1461017057806342966c681461019257806356d5d475146101b25780636059f096146101c557600080fd5b8063014372eb146100ed5780630badce4114610138578063250cab391461015a575b600080fd5b3480156100f957600080fd5b50610125610108366004611389565b600660209081526000928352604080842090915290825290205481565b6040519081526020015b60405180910390f35b34801561014457600080fd5b506101586101533660046113b5565b6103c6565b005b34801561016657600080fd5b5061012560045481565b34801561017c57600080fd5b506101856103ff565b60405161012f9190611421565b34801561019e57600080fd5b506101586101ad36600461146c565b6104a7565b6101586101c0366004611499565b6106bc565b3480156101d157600080fd5b506101586101e03660046115b3565b610768565b3480156101f157600080fd5b506102466102003660046116f0565b600260208190526000918252604090912080546001820154928201546003909201546001600160a01b03918216939263ffffffff811692600160201b9091048116911685565b604080516001600160a01b039687168152602081019590955263ffffffff909316928401929092528316606083015291909116608082015260a00161012f565b34801561029257600080fd5b506102b96102a136600461146c565b60076020526000908152604090206001015460ff1681565b60405161012f9190611712565b3480156102d257600080fd5b506102e66102e136600461146c565b61077f565b60405161012f919061179f565b3480156102ff57600080fd5b5061024661030e36600461146c565b610880565b34801561031f57600080fd5b506003546103309063ffffffff1681565b60405163ffffffff909116815260200161012f565b34801561035157600080fd5b50600054610365906001600160a01b031681565b6040516001600160a01b03909116815260200161012f565b34801561038957600080fd5b506103926108d8565b60405161012f91906117d7565b3480156103ab57600080fd5b5060035461036590600160201b90046001600160a01b031681565b600082815260076020526040902060019081018054839260ff19909116908360038111156103f6576103f66113e9565b02179055505050565b60408051605a808252610b6082019092526060916000919060208201610b408036833701905050905060005b81518110156104a157600081815260076020526040902060010154825160ff90911690839083908110610460576104606117ea565b60200260200101906003811115610479576104796113e9565b9081600381111561048c5761048c6113e9565b9052508061049981611816565b91505061042b565b50919050565b600260008281526007602052604090206001015460ff1660038111156104cf576104cf6113e9565b146105175760405162461bcd60e51b815260206004820152601360248201527215985d5b1d081a5cc81b9bdd081b5a5b9d1959606a1b60448201526064015b60405180910390fd5b60035460048054604051632770a7eb60e21b815233928101929092526024820152600160201b9091046001600160a01b031690639dc29fac90604401600060405180830381600087803b15801561056d57600080fd5b505af1158015610581573d6000803e3d6000fd5b5050505060005b60008281526007602052604090205481101561069d5760008281526007602052604090208054829081106105be576105be6117ea565b600091825260208083206004909202909101548483526007909152604090912080546001600160a01b039092169163a9059cbb91339185908110610604576106046117ea565b9060005260206000209060040201600101546040518363ffffffff1660e01b81526004016106479291906001600160a01b03929092168252602082015260400190565b6020604051808303816000875af1158015610666573d6000803e3d6000fd5b505050506040513d601f19601f8201168201806040525081019061068a919061182f565b508061069581611816565b915050610588565b506000908152600760205260409020600101805460ff19166003179055565b6000546001600160a01b0316836001600160a01b03161461071f5760405162461bcd60e51b815260206004820152601f60248201527f53656e646572206973206e6f74207468652073696465436861696e4c6f636b00604482015260640161050e565b600061072d828401846115b3565b905060008160200151600081518110610748576107486117ea565b6020026020010151604001519050610760828261097d565b505050505050565b60035461077c90829063ffffffff1661097d565b50565b6040805180820190915260608152600060208201526000828152600760209081526040808320815181546060948102820185018452928101838152909491938593919285929185015b828210156108405760008481526020908190206040805160a0810182526004860290920180546001600160a01b03908116845260018083015485870152600283015463ffffffff811694860194909452600160201b9093048116606085015260039091015416608083015290835290920191016107c8565b50505090825250600182015460209091019060ff166003811115610866576108666113e9565b6003811115610877576108776113e9565b90525092915050565b6001818154811061089057600080fd5b600091825260209091206004909102018054600182015460028301546003909301546001600160a01b039283169450909263ffffffff811692600160201b9091048116911685565b60606001805480602002602001604051908101604052809291908181526020016000905b828210156109745760008481526020908190206040805160a0810182526004860290920180546001600160a01b03908116845260018083015485870152600283015463ffffffff811694860194909452600160201b9093048116606085015260039091015416608083015290835290920191016108fc565b50505050905090565b81516020830151600160008381526007602052604090206001015460ff1660038111156109ac576109ac6113e9565b14806109db575060008281526007602052604081206001015460ff1660038111156109d9576109d96113e9565b145b610a275760405162461bcd60e51b815260206004820152601a60248201527f5661756c74206973206e6f74206f70656e206f7220656d707479000000000000604482015260640161050e565b60008281526007602052604081206001015460ff166003811115610a4d57610a4d6113e9565b03610be95760005b600154811015610bc957600760008481526020019081526020016000206000016040518060a0016040528060018481548110610a9357610a936117ea565b600091825260208083206004909202909101546001600160a01b031683528201526001805460409092019185908110610ace57610ace6117ea565b600091825260208083206002600490930201919091015463ffffffff1683528201526001805460409092019185908110610b0a57610b0a6117ea565b60009182526020808320600360049384029091018101546001600160a01b039081169095528654600181810189559785529382902086519490930290920180549385166001600160a01b03199485161781559085015195810195909555604084015160028601805460608701518616600160201b026001600160c01b031990911663ffffffff90931692909217919091179055608090930151939092018054939091169290911691909117905580610bc181611816565b915050610a55565b5060008281526007602052604090206001908101805460ff191690911790555b60005b815181101561107157610c5860405180604001604052806011815260200170546f6b656e20616464726573733a20257360781b815250838381518110610c3457610c346117ea565b60209081029190910181015151600087815260079092526040909120548490611128565b60026000838381518110610c6e57610c6e6117ea565b6020026020010151600001516001600160a01b03166001600160a01b0316815260200190815260200160002060010154600760008581526020019081526020016000206000018281548110610cc557610cc56117ea565b906000526020600020906004020160010154838381518110610ce957610ce96117ea565b602002602001015160200151610cff9190611851565b1115610d605760405162461bcd60e51b815260206004820152602a60248201527f546f6b656e207175616e746974792065786365656473207468652072657175696044820152691c995908185b5bdd5b9d60b21b606482015260840161050e565b8363ffffffff16828281518110610d7957610d796117ea565b60200260200101516040015163ffffffff1603610e7557818181518110610da257610da26117ea565b6020026020010151600001516001600160a01b03166323b872dd838381518110610dce57610dce6117ea565b60200260200101516060015130858581518110610ded57610ded6117ea565b60209081029190910181015101516040516001600160e01b031960e086901b1681526001600160a01b03938416600482015292909116602483015260448201526064016020604051808303816000875af1158015610e4f573d6000803e3d6000fd5b505050506040513d601f19601f82011682018060405250810190610e73919061182f565b505b818181518110610e8757610e876117ea565b602002602001015160200151600760008581526020019081526020016000206000018281548110610eba57610eba6117ea565b90600052602060002090600402016001016000828254610eda9190611851565b925050819055507f80590f9d7015c327349ea64242fc29353801fcad956721a0e45f725338db06f483838381518110610f1557610f156117ea565b602002602001015160000151848481518110610f3357610f336117ea565b602002602001015160200151858581518110610f5157610f516117ea565b602002602001015160400151868681518110610f6f57610f6f6117ea565b602002602001015160600151604051610fb99594939291909485526001600160a01b039384166020860152604085019290925263ffffffff16606084015216608082015260a00190565b60405180910390a1600083815260066020908152604080832033845290915281205490036110105760008381526005602090815260408220805460018101825590835291200180546001600160a01b031916331790555b818181518110611022576110226117ea565b6020908102919091018101518101516000858152600683526040808220338352909352918220805491929091611059908490611851565b9091555081905061106981611816565b915050610bec565b5060005b6001548110156110fc5760018181548110611092576110926117ea565b9060005260206000209060040201600101546007600085815260200190815260200160002060000182815481106110cb576110cb6117ea565b90600052602060002090600402016001015410156110ea575050505050565b806110f481611816565b915050611075565b506000828152600760205260409020600101805460ff1916600217905561112282611171565b50505050565b611122848484846040516024016111429493929190611864565b60408051601f198184030181529190526020810180516001600160e01b0316637c7a8d8f60e11b179052611348565b6000805b6000838152600560205260409020548110156111fb576000838152600660209081526040808320600590925282208054919291849081106111b8576111b86117ea565b60009182526020808320909101546001600160a01b031683528201929092526040019020546111e79083611851565b9150806111f381611816565b915050611175565b5060005b6000838152600560205260409020548110156113435760045460008481526006602090815260408083206005909252822080549293869390929185918790811061124b5761124b6117ea565b60009182526020808320909101546001600160a01b0316835282019290925260400190205461127a91906118d2565b61128491906118e9565b60035460008681526005602052604090208054929350600160201b9091046001600160a01b0316916340c10f199190859081106112c3576112c36117ea565b60009182526020909120015460405160e083901b6001600160e01b03191681526001600160a01b03909116600482015260248101849052604401600060405180830381600087803b15801561131757600080fd5b505af115801561132b573d6000803e3d6000fd5b5050505050808061133b90611816565b9150506111ff565b505050565b61077c8160006a636f6e736f6c652e6c6f679050600080835160208501845afa505050565b80356001600160a01b038116811461138457600080fd5b919050565b6000806040838503121561139c57600080fd5b823591506113ac6020840161136d565b90509250929050565b600080604083850312156113c857600080fd5b823591506020830135600481106113de57600080fd5b809150509250929050565b634e487b7160e01b600052602160045260246000fd5b6004811061141d57634e487b7160e01b600052602160045260246000fd5b9052565b6020808252825182820181905260009190848201906040850190845b81811015611460576114508385516113ff565b928401929184019160010161143d565b50909695505050505050565b60006020828403121561147e57600080fd5b5035919050565b803563ffffffff8116811461138457600080fd5b600080600080606085870312156114af57600080fd5b6114b885611485565b935060208501359250604085013567ffffffffffffffff808211156114dc57600080fd5b818701915087601f8301126114f057600080fd5b8135818111156114ff57600080fd5b88602082850101111561151157600080fd5b95989497505060200194505050565b634e487b7160e01b600052604160045260246000fd5b6040805190810167ffffffffffffffff8111828210171561155957611559611520565b60405290565b60405160a0810167ffffffffffffffff8111828210171561155957611559611520565b604051601f8201601f1916810167ffffffffffffffff811182821017156115ab576115ab611520565b604052919050565b600060208083850312156115c657600080fd5b823567ffffffffffffffff808211156115de57600080fd5b818501915060408083880312156115f457600080fd5b6115fc611536565b83358152848401358381111561161157600080fd5b80850194505087601f85011261162657600080fd5b83358381111561163857611638611520565b611646868260051b01611582565b818152868101945060a091820286018701918a83111561166557600080fd5b958701955b828710156116dd5780878c0312156116825760008081fd5b61168a61155f565b6116938861136d565b815288880135898201526116a8868901611485565b8682015260606116b9818a0161136d565b9082015260806116ca89820161136d565b908201528652958601959487019461166a565b5095820195909552979650505050505050565b60006020828403121561170257600080fd5b61170b8261136d565b9392505050565b6020810161172082846113ff565b92915050565b600081518084526020808501945080840160005b8381101561179457815180516001600160a01b03908116895284820151858a015260408083015163ffffffff16908a01526060808301518216908a0152608091820151169088015260a0909601959082019060010161173a565b509495945050505050565b6020815260008251604060208401526117bb6060840182611726565b905060208401516117cf60408501826113ff565b509392505050565b60208152600061170b6020830184611726565b634e487b7160e01b600052603260045260246000fd5b634e487b7160e01b600052601160045260246000fd5b60006001820161182857611828611800565b5060010190565b60006020828403121561184157600080fd5b8151801515811461170b57600080fd5b8082018082111561172057611720611800565b608081526000855180608084015260005b8181101561189257602081890181015160a0868401015201611875565b50600060a08285018101919091526001600160a01b039690961660208401526040830194909452506060810191909152601f909101601f19160101919050565b808202811582820484141761172057611720611800565b60008261190657634e487b7160e01b600052601260045260246000fd5b50049056fea2646970667358221220a4e29a29b0304daad7abbd7f9cf2a2d7573edee503a7e430d416d9aaa2b9423264736f6c63430008110033",
  "devdoc": {
    "kind": "dev",
    "methods": {},
    "version": 1
  },
  "userdoc": {
    "kind": "user",
    "methods": {},
    "version": 1
  },
  "storageLayout": {
    "storage": [
      {
        "astId": 940,
        "contract": "contracts/ETFIssuingChain.sol:ETFIssuingChain",
        "label": "sideChainLock",
        "offset": 0,
        "slot": "0",
        "type": "t_address"
      },
      {
        "astId": 944,
        "contract": "contracts/ETFIssuingChain.sol:ETFIssuingChain",
        "label": "requiredTokens",
        "offset": 0,
        "slot": "1",
        "type": "t_array(t_struct(TokenQuantity)909_storage)dyn_storage"
      },
      {
        "astId": 949,
        "contract": "contracts/ETFIssuingChain.sol:ETFIssuingChain",
        "label": "addressToToken",
        "offset": 0,
        "slot": "2",
        "type": "t_mapping(t_address,t_struct(TokenQuantity)909_storage)"
      },
      {
        "astId": 951,
        "contract": "contracts/ETFIssuingChain.sol:ETFIssuingChain",
        "label": "chainId",
        "offset": 0,
        "slot": "3",
        "type": "t_uint32"
      },
      {
        "astId": 953,
        "contract": "contracts/ETFIssuingChain.sol:ETFIssuingChain",
        "label": "etfToken",
        "offset": 4,
        "slot": "3",
        "type": "t_address"
      },
      {
        "astId": 955,
        "contract": "contracts/ETFIssuingChain.sol:ETFIssuingChain",
        "label": "etfTokenPerVault",
        "offset": 0,
        "slot": "4",
        "type": "t_uint256"
      },
      {
        "astId": 960,
        "contract": "contracts/ETFIssuingChain.sol:ETFIssuingChain",
        "label": "contributorsByVault",
        "offset": 0,
        "slot": "5",
        "type": "t_mapping(t_uint256,t_array(t_address)dyn_storage)"
      },
      {
        "astId": 966,
        "contract": "contracts/ETFIssuingChain.sol:ETFIssuingChain",
        "label": "accountContributionsPerVault",
        "offset": 0,
        "slot": "6",
        "type": "t_mapping(t_uint256,t_mapping(t_address,t_uint256))"
      },
      {
        "astId": 983,
        "contract": "contracts/ETFIssuingChain.sol:ETFIssuingChain",
        "label": "vaults",
        "offset": 0,
        "slot": "7",
        "type": "t_mapping(t_uint256,t_struct(Vault)917_storage)"
      }
    ],
    "types": {
      "t_address": {
        "encoding": "inplace",
        "label": "address",
        "numberOfBytes": "20"
      },
      "t_array(t_address)dyn_storage": {
        "base": "t_address",
        "encoding": "dynamic_array",
        "label": "address[]",
        "numberOfBytes": "32"
      },
      "t_array(t_struct(TokenQuantity)909_storage)dyn_storage": {
        "base": "t_struct(TokenQuantity)909_storage",
        "encoding": "dynamic_array",
        "label": "struct TokenQuantity[]",
        "numberOfBytes": "32"
      },
      "t_enum(VaultState)922": {
        "encoding": "inplace",
        "label": "enum VaultState",
        "numberOfBytes": "1"
      },
      "t_mapping(t_address,t_struct(TokenQuantity)909_storage)": {
        "encoding": "mapping",
        "key": "t_address",
        "label": "mapping(address => struct TokenQuantity)",
        "numberOfBytes": "32",
        "value": "t_struct(TokenQuantity)909_storage"
      },
      "t_mapping(t_address,t_uint256)": {
        "encoding": "mapping",
        "key": "t_address",
        "label": "mapping(address => uint256)",
        "numberOfBytes": "32",
        "value": "t_uint256"
      },
      "t_mapping(t_uint256,t_array(t_address)dyn_storage)": {
        "encoding": "mapping",
        "key": "t_uint256",
        "label": "mapping(uint256 => address[])",
        "numberOfBytes": "32",
        "value": "t_array(t_address)dyn_storage"
      },
      "t_mapping(t_uint256,t_mapping(t_address,t_uint256))": {
        "encoding": "mapping",
        "key": "t_uint256",
        "label": "mapping(uint256 => mapping(address => uint256))",
        "numberOfBytes": "32",
        "value": "t_mapping(t_address,t_uint256)"
      },
      "t_mapping(t_uint256,t_struct(Vault)917_storage)": {
        "encoding": "mapping",
        "key": "t_uint256",
        "label": "mapping(uint256 => struct Vault)",
        "numberOfBytes": "32",
        "value": "t_struct(Vault)917_storage"
      },
      "t_struct(TokenQuantity)909_storage": {
        "encoding": "inplace",
        "label": "struct TokenQuantity",
        "members": [
          {
            "astId": 900,
            "contract": "contracts/ETFIssuingChain.sol:ETFIssuingChain",
            "label": "_address",
            "offset": 0,
            "slot": "0",
            "type": "t_address"
          },
          {
            "astId": 902,
            "contract": "contracts/ETFIssuingChain.sol:ETFIssuingChain",
            "label": "_quantity",
            "offset": 0,
            "slot": "1",
            "type": "t_uint256"
          },
          {
            "astId": 904,
            "contract": "contracts/ETFIssuingChain.sol:ETFIssuingChain",
            "label": "_chainId",
            "offset": 0,
            "slot": "2",
            "type": "t_uint32"
          },
          {
            "astId": 906,
            "contract": "contracts/ETFIssuingChain.sol:ETFIssuingChain",
            "label": "_contributor",
            "offset": 4,
            "slot": "2",
            "type": "t_address"
          },
          {
            "astId": 908,
            "contract": "contracts/ETFIssuingChain.sol:ETFIssuingChain",
            "label": "_aggregator",
            "offset": 0,
            "slot": "3",
            "type": "t_address"
          }
        ],
        "numberOfBytes": "128"
      },
      "t_struct(Vault)917_storage": {
        "encoding": "inplace",
        "label": "struct Vault",
        "members": [
          {
            "astId": 913,
            "contract": "contracts/ETFIssuingChain.sol:ETFIssuingChain",
            "label": "_tokens",
            "offset": 0,
            "slot": "0",
            "type": "t_array(t_struct(TokenQuantity)909_storage)dyn_storage"
          },
          {
            "astId": 916,
            "contract": "contracts/ETFIssuingChain.sol:ETFIssuingChain",
            "label": "state",
            "offset": 0,
            "slot": "1",
            "type": "t_enum(VaultState)922"
          }
        ],
        "numberOfBytes": "64"
      },
      "t_uint256": {
        "encoding": "inplace",
        "label": "uint256",
        "numberOfBytes": "32"
      },
      "t_uint32": {
        "encoding": "inplace",
        "label": "uint32",
        "numberOfBytes": "4"
      }
    }
  }
}