{
  "address": "0xbd291e25CB86177C8E35829c805dEBDe64e3eE19",
  "abi": [
    {
      "inputs": [
        {
          "internalType": "uint32",
          "name": "_chainId",
          "type": "uint32"
        },
        {
          "components": [
            {
              "internalType": "address",
              "name": "_address",
              "type": "address"
            },
            {
              "internalType": "uint256",
              "name": "_quantity",
              "type": "uint256"
            },
            {
              "internalType": "uint32",
              "name": "_chainId",
              "type": "uint32"
            },
            {
              "internalType": "address",
              "name": "_contributor",
              "type": "address"
            },
            {
              "internalType": "address",
              "name": "_aggregator",
              "type": "address"
            }
          ],
          "internalType": "struct TokenQuantity[]",
          "name": "_requiredTokens",
          "type": "tuple[]"
        },
        {
          "internalType": "address",
          "name": "_etfToken",
          "type": "address"
        },
        {
          "internalType": "uint256",
          "name": "_etfTokenPerVault",
          "type": "uint256"
        }
      ],
      "stateMutability": "nonpayable",
      "type": "constructor"
    },
    {
      "anonymous": false,
      "inputs": [
        {
          "indexed": false,
          "internalType": "uint256",
          "name": "_vaultId",
          "type": "uint256"
        },
        {
          "indexed": false,
          "internalType": "address",
          "name": "_address",
          "type": "address"
        },
        {
          "indexed": false,
          "internalType": "uint256",
          "name": "_quantity",
          "type": "uint256"
        },
        {
          "indexed": false,
          "internalType": "uint32",
          "name": "_chainId",
          "type": "uint32"
        },
        {
          "indexed": false,
          "internalType": "address",
          "name": "_contributor",
          "type": "address"
        }
      ],
      "name": "Deposit",
      "type": "event"
    },
    {
      "inputs": [
        {
          "internalType": "uint256",
          "name": "",
          "type": "uint256"
        },
        {
          "internalType": "address",
          "name": "",
          "type": "address"
        }
      ],
      "name": "accountContributionsPerVault",
      "outputs": [
        {
          "internalType": "uint256",
          "name": "",
          "type": "uint256"
        }
      ],
      "stateMutability": "view",
      "type": "function"
    },
    {
      "inputs": [
        {
          "internalType": "address",
          "name": "",
          "type": "address"
        }
      ],
      "name": "addressToToken",
      "outputs": [
        {
          "internalType": "address",
          "name": "_address",
          "type": "address"
        },
        {
          "internalType": "uint256",
          "name": "_quantity",
          "type": "uint256"
        },
        {
          "internalType": "uint32",
          "name": "_chainId",
          "type": "uint32"
        },
        {
          "internalType": "address",
          "name": "_contributor",
          "type": "address"
        },
        {
          "internalType": "address",
          "name": "_aggregator",
          "type": "address"
        }
      ],
      "stateMutability": "view",
      "type": "function"
    },
    {
      "inputs": [
        {
          "internalType": "uint256",
          "name": "_vaultId",
          "type": "uint256"
        }
      ],
      "name": "burn",
      "outputs": [],
      "stateMutability": "nonpayable",
      "type": "function"
    },
    {
      "inputs": [],
      "name": "chainId",
      "outputs": [
        {
          "internalType": "uint32",
          "name": "",
          "type": "uint32"
        }
      ],
      "stateMutability": "view",
      "type": "function"
    },
    {
      "inputs": [
        {
          "components": [
            {
              "internalType": "uint256",
              "name": "vaultId",
              "type": "uint256"
            },
            {
              "components": [
                {
                  "internalType": "address",
                  "name": "_address",
                  "type": "address"
                },
                {
                  "internalType": "uint256",
                  "name": "_quantity",
                  "type": "uint256"
                },
                {
                  "internalType": "uint32",
                  "name": "_chainId",
                  "type": "uint32"
                },
                {
                  "internalType": "address",
                  "name": "_contributor",
                  "type": "address"
                },
                {
                  "internalType": "address",
                  "name": "_aggregator",
                  "type": "address"
                }
              ],
              "internalType": "struct TokenQuantity[]",
              "name": "tokens",
              "type": "tuple[]"
            }
          ],
          "internalType": "struct DepositInfo",
          "name": "_depositInfo",
          "type": "tuple"
        }
      ],
      "name": "deposit",
      "outputs": [],
      "stateMutability": "nonpayable",
      "type": "function"
    },
    {
      "inputs": [],
      "name": "etfToken",
      "outputs": [
        {
          "internalType": "address",
          "name": "",
          "type": "address"
        }
      ],
      "stateMutability": "view",
      "type": "function"
    },
    {
      "inputs": [],
      "name": "etfTokenPerVault",
      "outputs": [
        {
          "internalType": "uint256",
          "name": "",
          "type": "uint256"
        }
      ],
      "stateMutability": "view",
      "type": "function"
    },
    {
      "inputs": [],
      "name": "getRequiredTokens",
      "outputs": [
        {
          "components": [
            {
              "internalType": "address",
              "name": "_address",
              "type": "address"
            },
            {
              "internalType": "uint256",
              "name": "_quantity",
              "type": "uint256"
            },
            {
              "internalType": "uint32",
              "name": "_chainId",
              "type": "uint32"
            },
            {
              "internalType": "address",
              "name": "_contributor",
              "type": "address"
            },
            {
              "internalType": "address",
              "name": "_aggregator",
              "type": "address"
            }
          ],
          "internalType": "struct TokenQuantity[]",
          "name": "",
          "type": "tuple[]"
        }
      ],
      "stateMutability": "view",
      "type": "function"
    },
    {
      "inputs": [
        {
          "internalType": "uint256",
          "name": "_vaultId",
          "type": "uint256"
        }
      ],
      "name": "getVault",
      "outputs": [
        {
          "components": [
            {
              "components": [
                {
                  "internalType": "address",
                  "name": "_address",
                  "type": "address"
                },
                {
                  "internalType": "uint256",
                  "name": "_quantity",
                  "type": "uint256"
                },
                {
                  "internalType": "uint32",
                  "name": "_chainId",
                  "type": "uint32"
                },
                {
                  "internalType": "address",
                  "name": "_contributor",
                  "type": "address"
                },
                {
                  "internalType": "address",
                  "name": "_aggregator",
                  "type": "address"
                }
              ],
              "internalType": "struct TokenQuantity[]",
              "name": "_tokens",
              "type": "tuple[]"
            },
            {
              "internalType": "enum VaultState",
              "name": "state",
              "type": "uint8"
            }
          ],
          "internalType": "struct Vault",
          "name": "",
          "type": "tuple"
        }
      ],
      "stateMutability": "view",
      "type": "function"
    },
    {
      "inputs": [],
      "name": "getVaultStates",
      "outputs": [
        {
          "internalType": "enum VaultState[]",
          "name": "",
          "type": "uint8[]"
        }
      ],
      "stateMutability": "view",
      "type": "function"
    },
    {
      "inputs": [
        {
          "internalType": "uint32",
          "name": "_origin",
          "type": "uint32"
        },
        {
          "internalType": "bytes32",
          "name": "_sender",
          "type": "bytes32"
        },
        {
          "internalType": "bytes",
          "name": "_message",
          "type": "bytes"
        }
      ],
      "name": "handle",
      "outputs": [],
      "stateMutability": "payable",
      "type": "function"
    },
    {
      "inputs": [
        {
          "internalType": "uint256",
          "name": "",
          "type": "uint256"
        }
      ],
      "name": "requiredTokens",
      "outputs": [
        {
          "internalType": "address",
          "name": "_address",
          "type": "address"
        },
        {
          "internalType": "uint256",
          "name": "_quantity",
          "type": "uint256"
        },
        {
          "internalType": "uint32",
          "name": "_chainId",
          "type": "uint32"
        },
        {
          "internalType": "address",
          "name": "_contributor",
          "type": "address"
        },
        {
          "internalType": "address",
          "name": "_aggregator",
          "type": "address"
        }
      ],
      "stateMutability": "view",
      "type": "function"
    },
    {
      "inputs": [],
      "name": "sideChainLock",
      "outputs": [
        {
          "internalType": "address",
          "name": "",
          "type": "address"
        }
      ],
      "stateMutability": "view",
      "type": "function"
    },
    {
      "inputs": [
        {
          "internalType": "uint256",
          "name": "",
          "type": "uint256"
        }
      ],
      "name": "vaults",
      "outputs": [
        {
          "internalType": "enum VaultState",
          "name": "state",
          "type": "uint8"
        }
      ],
      "stateMutability": "view",
      "type": "function"
    }
  ],
  "transactionHash": "0x1346d9b7f501721745d10b4db6dc7b5daab17f304c939e92b35d0aa2750e07ac",
  "args": [
    1440002,
    [
      {
        "_address": "0xb5969A5e0f10B56aE4e9B349C5edE226b7B9e3bA",
        "_quantity": "100000000000000000000",
        "_chainId": 1440002,
        "_contributor": "0x2a1F5eB3e84e58e6F1e565306298B9dE1273f203",
        "_aggregator": "0xf1D2ABFDB8142A1E37C256ac43E92e8B04e29e3A"
      },
      {
        "_address": "0x6E9BF1F71a479E0b05c744Bf7AC546c9Ec942603",
        "_quantity": "200000000000000000000",
        "_chainId": 1440002,
        "_contributor": "0x2a1F5eB3e84e58e6F1e565306298B9dE1273f203",
        "_aggregator": "0x79aa80021eD7F22A1c494F851A8254733383B232"
      }
    ],
    "0x106d24F579D77fbe71CBBF169f6Dc376208e25b5",
    "100000000000000000000"
  ],
  "numDeployments": 2,
  "solcInputHash": "1b16962ee5bdf47828e3c4de7b1490c7",
  "bytecode": "0x60806040523480156200001157600080fd5b5060405162001d2538038062001d258339810160408190526200003491620002bb565b600380546001600160a01b038416640100000000026001600160c01b031990911663ffffffff871617179055600481905560005b83518110156200020a57600184828151811062000089576200008962000405565b602090810291909101810151825460018082018555600094855293839020825160049092020180546001600160a01b03199081166001600160a01b0393841617825593830151948101949094556040820151600285018054606085015163ffffffff9093166001600160c01b0319909116176401000000009284169290920291909117905560809091015160039093018054909216921691909117905583518490829081106200013d576200013d62000405565b6020026020010151600260008684815181106200015e576200015e62000405565b602090810291909101810151516001600160a01b039081168352828201939093526040918201600020845181549085166001600160a01b03199182161782559185015160018201559184015160028301805460608701518616640100000000026001600160c01b031990911663ffffffff90931692909217919091179055608090930151600390910180549190921692169190911790558062000201816200041b565b91505062000068565b505050505062000443565b805163ffffffff811681146200022a57600080fd5b919050565b634e487b7160e01b600052604160045260246000fd5b60405160a081016001600160401b03811182821017156200026a576200026a6200022f565b60405290565b604051601f8201601f191681016001600160401b03811182821017156200029b576200029b6200022f565b604052919050565b80516001600160a01b03811681146200022a57600080fd5b6000806000806080808688031215620002d357600080fd5b620002de8662000215565b602087810151919650906001600160401b0380821115620002fe57600080fd5b818901915089601f8301126200031357600080fd5b8151818111156200032857620003286200022f565b62000338848260051b0162000270565b818152848101925060a091820284018501918c8311156200035857600080fd5b938501935b82851015620003dd5780858e031215620003775760008081fd5b6200038162000245565b6200038c86620002a3565b815286860151878201526040620003a581880162000215565b908201526060620003b8878201620002a3565b90820152620003c9868901620002a3565b81890152845293840193928501926200035d565b50809850505050505050620003f560408601620002a3565b6060959095015193969295505050565b634e487b7160e01b600052603260045260246000fd5b6000600182016200043c57634e487b7160e01b600052601160045260246000fd5b5060010190565b6118d280620004536000396000f3fe6080604052600436106100dd5760003560e01c80638c64ea4a1161007f5780639a8a0592116100595780639a8a0592146102e85780639c58a5a41461031a578063cca3ce2b14610352578063eb6a9aa01461037457600080fd5b80638c64ea4a1461025b5780639403b6341461029b578063956a45a6146102c857600080fd5b806342966c68116100bb57806342966c681461016557806356d5d475146101875780636059f0961461019a57806369abaac9146101ba57600080fd5b8063014372eb146100e2578063250cab391461012d578063309bfe4a14610143575b600080fd5b3480156100ee57600080fd5b5061011a6100fd36600461134e565b600660209081526000928352604080842090915290825290205481565b6040519081526020015b60405180910390f35b34801561013957600080fd5b5061011a60045481565b34801561014f57600080fd5b5061015861039b565b60405161012491906113b2565b34801561017157600080fd5b506101856101803660046113fd565b610443565b005b61018561019536600461142a565b61063d565b3480156101a657600080fd5b506101856101b5366004611544565b6106e9565b3480156101c657600080fd5b5061021b6101d5366004611681565b600260208190526000918252604090912080546001820154928201546003909201546001600160a01b03918216939263ffffffff811692600160201b9091048116911685565b604080516001600160a01b039687168152602081019590955263ffffffff909316928401929092528316606083015291909116608082015260a001610124565b34801561026757600080fd5b5061028e6102763660046113fd565b60076020526000908152604090206001015460ff1681565b60405161012491906116a3565b3480156102a757600080fd5b506102bb6102b63660046113fd565b610700565b6040516101249190611730565b3480156102d457600080fd5b5061021b6102e33660046113fd565b610801565b3480156102f457600080fd5b506003546103059063ffffffff1681565b60405163ffffffff9091168152602001610124565b34801561032657600080fd5b5060005461033a906001600160a01b031681565b6040516001600160a01b039091168152602001610124565b34801561035e57600080fd5b50610367610859565b6040516101249190611768565b34801561038057600080fd5b5060035461033a90600160201b90046001600160a01b031681565b60408051605a808252610b6082019092526060916000919060208201610b408036833701905050905060005b815181101561043d57600081815260076020526040902060010154825160ff909116908390839081106103fc576103fc61177b565b602002602001019060038111156104155761041561137a565b908160038111156104285761042861137a565b90525080610435816117a7565b9150506103c7565b50919050565b600260008281526007602052604090206001015460ff16600381111561046b5761046b61137a565b146104b35760405162461bcd60e51b815260206004820152601360248201527215985d5b1d081a5cc81b9bdd081b5a5b9d1959606a1b60448201526064015b60405180910390fd5b60035460048054604051632770a7eb60e21b815233928101929092526024820152600160201b9091046001600160a01b031690639dc29fac90604401600060405180830381600087803b15801561050957600080fd5b505af115801561051d573d6000803e3d6000fd5b5050505060005b60008281526007602052604090205481101561063957600082815260076020526040902080548290811061055a5761055a61177b565b600091825260208083206004909202909101548483526007909152604090912080546001600160a01b039092169163a9059cbb913391859081106105a0576105a061177b565b9060005260206000209060040201600101546040518363ffffffff1660e01b81526004016105e39291906001600160a01b03929092168252602082015260400190565b6020604051808303816000875af1158015610602573d6000803e3d6000fd5b505050506040513d601f19601f8201168201806040525081019061062691906117c0565b5080610631816117a7565b915050610524565b5050565b6000546001600160a01b0316836001600160a01b0316146106a05760405162461bcd60e51b815260206004820152601f60248201527f53656e646572206973206e6f74207468652073696465436861696e4c6f636b0060448201526064016104aa565b60006106ae82840184611544565b9050600081602001516000815181106106c9576106c961177b565b60200260200101516040015190506106e182826108fe565b505050505050565b6003546106fd90829063ffffffff166108fe565b50565b6040805180820190915260608152600060208201526000828152600760209081526040808320815181546060948102820185018452928101838152909491938593919285929185015b828210156107c15760008481526020908190206040805160a0810182526004860290920180546001600160a01b03908116845260018083015485870152600283015463ffffffff811694860194909452600160201b909304811660608501526003909101541660808301529083529092019101610749565b50505090825250600182015460209091019060ff1660038111156107e7576107e761137a565b60038111156107f8576107f861137a565b90525092915050565b6001818154811061081157600080fd5b600091825260209091206004909102018054600182015460028301546003909301546001600160a01b039283169450909263ffffffff811692600160201b9091048116911685565b60606001805480602002602001604051908101604052809291908181526020016000905b828210156108f55760008481526020908190206040805160a0810182526004860290920180546001600160a01b03908116845260018083015485870152600283015463ffffffff811694860194909452600160201b90930481166060850152600390910154166080830152908352909201910161087d565b50505050905090565b81516020830151600160008381526007602052604090206001015460ff16600381111561092d5761092d61137a565b148061095c575060008281526007602052604081206001015460ff16600381111561095a5761095a61137a565b145b6109a85760405162461bcd60e51b815260206004820152601a60248201527f5661756c74206973206e6f74206f70656e206f7220656d70747900000000000060448201526064016104aa565b60008281526007602052604081206001015460ff1660038111156109ce576109ce61137a565b03610b415760005b600154811015610b2157600760008481526020019081526020016000206000016040518060a0016040528060018481548110610a1457610a1461177b565b600091825260208083206004909202909101546001600160a01b03168352820181905263ffffffff8816604083015260608201526001805460809092019185908110610a6257610a6261177b565b60009182526020808320600360049384029091018101546001600160a01b039081169095528654600181810189559785529382902086519490930290920180549385166001600160a01b03199485161781559085015195810195909555604084015160028601805460608701518616600160201b026001600160c01b031990911663ffffffff90931692909217919091179055608090930151939092018054939091169290911691909117905580610b19816117a7565b9150506109d6565b5060008281526007602052604090206001908101805460ff191690911790555b60005b8151811015611036578363ffffffff16828281518110610b6657610b6661177b565b60200260200101516040015163ffffffff1614610beb5760405162461bcd60e51b815260206004820152603860248201527f546f6b656e20636861696e496420646f6573206e6f74206d617463682074686560448201527f20636861696e4964206f662074686520636f6e7472616374000000000000000060648201526084016104aa565b610c4e60405180604001604052806011815260200170546f6b656e20616464726573733a20257360781b815250838381518110610c2a57610c2a61177b565b602090810291909101810151516000878152600790925260409091205484906110ed565b60026000838381518110610c6457610c6461177b565b6020026020010151600001516001600160a01b03166001600160a01b0316815260200190815260200160002060010154600760008581526020019081526020016000206000018281548110610cbb57610cbb61177b565b906000526020600020906004020160010154838381518110610cdf57610cdf61177b565b602002602001015160200151610cf591906117e2565b1115610d565760405162461bcd60e51b815260206004820152602a60248201527f546f6b656e207175616e746974792065786365656473207468652072657175696044820152691c995908185b5bdd5b9d60b21b60648201526084016104aa565b818181518110610d6857610d6861177b565b6020026020010151600001516001600160a01b03166323b872dd838381518110610d9457610d9461177b565b60200260200101516060015130858581518110610db357610db361177b565b60209081029190910181015101516040516001600160e01b031960e086901b1681526001600160a01b03938416600482015292909116602483015260448201526064016020604051808303816000875af1158015610e15573d6000803e3d6000fd5b505050506040513d601f19601f82011682018060405250810190610e3991906117c0565b50818181518110610e4c57610e4c61177b565b602002602001015160200151600760008581526020019081526020016000206000018281548110610e7f57610e7f61177b565b90600052602060002090600402016001016000828254610e9f91906117e2565b925050819055507f80590f9d7015c327349ea64242fc29353801fcad956721a0e45f725338db06f483838381518110610eda57610eda61177b565b602002602001015160000151848481518110610ef857610ef861177b565b602002602001015160200151858581518110610f1657610f1661177b565b602002602001015160400151868681518110610f3457610f3461177b565b602002602001015160600151604051610f7e9594939291909485526001600160a01b039384166020860152604085019290925263ffffffff16606084015216608082015260a00190565b60405180910390a160008381526006602090815260408083203384529091528120549003610fd55760008381526005602090815260408220805460018101825590835291200180546001600160a01b031916331790555b818181518110610fe757610fe761177b565b602090810291909101810151810151600085815260068352604080822033835290935291822080549192909161101e9084906117e2565b9091555081905061102e816117a7565b915050610b44565b5060005b6001548110156110c157600181815481106110575761105761177b565b9060005260206000209060040201600101546007600085815260200190815260200160002060000182815481106110905761109061177b565b90600052602060002090600402016001015410156110af575050505050565b806110b9816117a7565b91505061103a565b506000828152600760205260409020600101805460ff191660021790556110e782611136565b50505050565b6110e78484848460405160240161110794939291906117f5565b60408051601f198184030181529190526020810180516001600160e01b0316637c7a8d8f60e11b17905261130d565b6000805b6000838152600560205260409020548110156111c05760008381526006602090815260408083206005909252822080549192918490811061117d5761117d61177b565b60009182526020808320909101546001600160a01b031683528201929092526040019020546111ac90836117e2565b9150806111b8816117a7565b91505061113a565b5060005b600083815260056020526040902054811015611308576004546000848152600660209081526040808320600590925282208054929386939092918591879081106112105761121061177b565b60009182526020808320909101546001600160a01b0316835282019290925260400190205461123f9190611863565b611249919061187a565b60035460008681526005602052604090208054929350600160201b9091046001600160a01b0316916340c10f199190859081106112885761128861177b565b60009182526020909120015460405160e083901b6001600160e01b03191681526001600160a01b03909116600482015260248101849052604401600060405180830381600087803b1580156112dc57600080fd5b505af11580156112f0573d6000803e3d6000fd5b50505050508080611300906117a7565b9150506111c4565b505050565b6106fd8160006a636f6e736f6c652e6c6f679050600080835160208501845afa505050565b80356001600160a01b038116811461134957600080fd5b919050565b6000806040838503121561136157600080fd5b8235915061137160208401611332565b90509250929050565b634e487b7160e01b600052602160045260246000fd5b600481106113ae57634e487b7160e01b600052602160045260246000fd5b9052565b6020808252825182820181905260009190848201906040850190845b818110156113f1576113e1838551611390565b92840192918401916001016113ce565b50909695505050505050565b60006020828403121561140f57600080fd5b5035919050565b803563ffffffff8116811461134957600080fd5b6000806000806060858703121561144057600080fd5b61144985611416565b935060208501359250604085013567ffffffffffffffff8082111561146d57600080fd5b818701915087601f83011261148157600080fd5b81358181111561149057600080fd5b8860208285010111156114a257600080fd5b95989497505060200194505050565b634e487b7160e01b600052604160045260246000fd5b6040805190810167ffffffffffffffff811182821017156114ea576114ea6114b1565b60405290565b60405160a0810167ffffffffffffffff811182821017156114ea576114ea6114b1565b604051601f8201601f1916810167ffffffffffffffff8111828210171561153c5761153c6114b1565b604052919050565b6000602080838503121561155757600080fd5b823567ffffffffffffffff8082111561156f57600080fd5b8185019150604080838803121561158557600080fd5b61158d6114c7565b8335815284840135838111156115a257600080fd5b80850194505087601f8501126115b757600080fd5b8335838111156115c9576115c96114b1565b6115d7868260051b01611513565b818152868101945060a091820286018701918a8311156115f657600080fd5b958701955b8287101561166e5780878c0312156116135760008081fd5b61161b6114f0565b61162488611332565b81528888013589820152611639868901611416565b86820152606061164a818a01611332565b90820152608061165b898201611332565b90820152865295860195948701946115fb565b5095820195909552979650505050505050565b60006020828403121561169357600080fd5b61169c82611332565b9392505050565b602081016116b18284611390565b92915050565b600081518084526020808501945080840160005b8381101561172557815180516001600160a01b03908116895284820151858a015260408083015163ffffffff16908a01526060808301518216908a0152608091820151169088015260a090960195908201906001016116cb565b509495945050505050565b60208152600082516040602084015261174c60608401826116b7565b905060208401516117606040850182611390565b509392505050565b60208152600061169c60208301846116b7565b634e487b7160e01b600052603260045260246000fd5b634e487b7160e01b600052601160045260246000fd5b6000600182016117b9576117b9611791565b5060010190565b6000602082840312156117d257600080fd5b8151801515811461169c57600080fd5b808201808211156116b1576116b1611791565b608081526000855180608084015260005b8181101561182357602081890181015160a0868401015201611806565b50600060a08285018101919091526001600160a01b039690961660208401526040830194909452506060810191909152601f909101601f19160101919050565b80820281158282048414176116b1576116b1611791565b60008261189757634e487b7160e01b600052601260045260246000fd5b50049056fea26469706673582212205bbadc8df6aabc38b631f55dbe974b626fad48213d3bd1e46dd9b16a2dfe208964736f6c63430008110033",
  "devdoc": {
    "kind": "dev",
    "methods": {},
    "version": 1
  },
  "userdoc": {
    "kind": "user",
    "methods": {},
    "version": 1
  },
  "storageLayout": {
    "storage": [
      {
        "astId": 940,
        "contract": "contracts/ETFIssuingChain.sol:ETFIssuingChain",
        "label": "sideChainLock",
        "offset": 0,
        "slot": "0",
        "type": "t_address"
      },
      {
        "astId": 944,
        "contract": "contracts/ETFIssuingChain.sol:ETFIssuingChain",
        "label": "requiredTokens",
        "offset": 0,
        "slot": "1",
        "type": "t_array(t_struct(TokenQuantity)909_storage)dyn_storage"
      },
      {
        "astId": 949,
        "contract": "contracts/ETFIssuingChain.sol:ETFIssuingChain",
        "label": "addressToToken",
        "offset": 0,
        "slot": "2",
        "type": "t_mapping(t_address,t_struct(TokenQuantity)909_storage)"
      },
      {
        "astId": 951,
        "contract": "contracts/ETFIssuingChain.sol:ETFIssuingChain",
        "label": "chainId",
        "offset": 0,
        "slot": "3",
        "type": "t_uint32"
      },
      {
        "astId": 953,
        "contract": "contracts/ETFIssuingChain.sol:ETFIssuingChain",
        "label": "etfToken",
        "offset": 4,
        "slot": "3",
        "type": "t_address"
      },
      {
        "astId": 955,
        "contract": "contracts/ETFIssuingChain.sol:ETFIssuingChain",
        "label": "etfTokenPerVault",
        "offset": 0,
        "slot": "4",
        "type": "t_uint256"
      },
      {
        "astId": 960,
        "contract": "contracts/ETFIssuingChain.sol:ETFIssuingChain",
        "label": "contributorsByVault",
        "offset": 0,
        "slot": "5",
        "type": "t_mapping(t_uint256,t_array(t_address)dyn_storage)"
      },
      {
        "astId": 966,
        "contract": "contracts/ETFIssuingChain.sol:ETFIssuingChain",
        "label": "accountContributionsPerVault",
        "offset": 0,
        "slot": "6",
        "type": "t_mapping(t_uint256,t_mapping(t_address,t_uint256))"
      },
      {
        "astId": 983,
        "contract": "contracts/ETFIssuingChain.sol:ETFIssuingChain",
        "label": "vaults",
        "offset": 0,
        "slot": "7",
        "type": "t_mapping(t_uint256,t_struct(Vault)917_storage)"
      }
    ],
    "types": {
      "t_address": {
        "encoding": "inplace",
        "label": "address",
        "numberOfBytes": "20"
      },
      "t_array(t_address)dyn_storage": {
        "base": "t_address",
        "encoding": "dynamic_array",
        "label": "address[]",
        "numberOfBytes": "32"
      },
      "t_array(t_struct(TokenQuantity)909_storage)dyn_storage": {
        "base": "t_struct(TokenQuantity)909_storage",
        "encoding": "dynamic_array",
        "label": "struct TokenQuantity[]",
        "numberOfBytes": "32"
      },
      "t_enum(VaultState)922": {
        "encoding": "inplace",
        "label": "enum VaultState",
        "numberOfBytes": "1"
      },
      "t_mapping(t_address,t_struct(TokenQuantity)909_storage)": {
        "encoding": "mapping",
        "key": "t_address",
        "label": "mapping(address => struct TokenQuantity)",
        "numberOfBytes": "32",
        "value": "t_struct(TokenQuantity)909_storage"
      },
      "t_mapping(t_address,t_uint256)": {
        "encoding": "mapping",
        "key": "t_address",
        "label": "mapping(address => uint256)",
        "numberOfBytes": "32",
        "value": "t_uint256"
      },
      "t_mapping(t_uint256,t_array(t_address)dyn_storage)": {
        "encoding": "mapping",
        "key": "t_uint256",
        "label": "mapping(uint256 => address[])",
        "numberOfBytes": "32",
        "value": "t_array(t_address)dyn_storage"
      },
      "t_mapping(t_uint256,t_mapping(t_address,t_uint256))": {
        "encoding": "mapping",
        "key": "t_uint256",
        "label": "mapping(uint256 => mapping(address => uint256))",
        "numberOfBytes": "32",
        "value": "t_mapping(t_address,t_uint256)"
      },
      "t_mapping(t_uint256,t_struct(Vault)917_storage)": {
        "encoding": "mapping",
        "key": "t_uint256",
        "label": "mapping(uint256 => struct Vault)",
        "numberOfBytes": "32",
        "value": "t_struct(Vault)917_storage"
      },
      "t_struct(TokenQuantity)909_storage": {
        "encoding": "inplace",
        "label": "struct TokenQuantity",
        "members": [
          {
            "astId": 900,
            "contract": "contracts/ETFIssuingChain.sol:ETFIssuingChain",
            "label": "_address",
            "offset": 0,
            "slot": "0",
            "type": "t_address"
          },
          {
            "astId": 902,
            "contract": "contracts/ETFIssuingChain.sol:ETFIssuingChain",
            "label": "_quantity",
            "offset": 0,
            "slot": "1",
            "type": "t_uint256"
          },
          {
            "astId": 904,
            "contract": "contracts/ETFIssuingChain.sol:ETFIssuingChain",
            "label": "_chainId",
            "offset": 0,
            "slot": "2",
            "type": "t_uint32"
          },
          {
            "astId": 906,
            "contract": "contracts/ETFIssuingChain.sol:ETFIssuingChain",
            "label": "_contributor",
            "offset": 4,
            "slot": "2",
            "type": "t_address"
          },
          {
            "astId": 908,
            "contract": "contracts/ETFIssuingChain.sol:ETFIssuingChain",
            "label": "_aggregator",
            "offset": 0,
            "slot": "3",
            "type": "t_address"
          }
        ],
        "numberOfBytes": "128"
      },
      "t_struct(Vault)917_storage": {
        "encoding": "inplace",
        "label": "struct Vault",
        "members": [
          {
            "astId": 913,
            "contract": "contracts/ETFIssuingChain.sol:ETFIssuingChain",
            "label": "_tokens",
            "offset": 0,
            "slot": "0",
            "type": "t_array(t_struct(TokenQuantity)909_storage)dyn_storage"
          },
          {
            "astId": 916,
            "contract": "contracts/ETFIssuingChain.sol:ETFIssuingChain",
            "label": "state",
            "offset": 0,
            "slot": "1",
            "type": "t_enum(VaultState)922"
          }
        ],
        "numberOfBytes": "64"
      },
      "t_uint256": {
        "encoding": "inplace",
        "label": "uint256",
        "numberOfBytes": "32"
      },
      "t_uint32": {
        "encoding": "inplace",
        "label": "uint32",
        "numberOfBytes": "4"
      }
    }
  }
}