{
  "address": "0x804ED71B7c1cdDc07053ced4b90B5a49d6283cc3",
  "abi": [
    {
      "inputs": [
        {
          "internalType": "int256",
          "name": "_price",
          "type": "int256"
        },
        {
          "internalType": "uint8",
          "name": "_decimals",
          "type": "uint8"
        }
      ],
      "stateMutability": "nonpayable",
      "type": "constructor"
    },
    {
      "inputs": [],
      "name": "decimals",
      "outputs": [
        {
          "internalType": "uint8",
          "name": "",
          "type": "uint8"
        }
      ],
      "stateMutability": "view",
      "type": "function"
    },
    {
      "inputs": [],
      "name": "description",
      "outputs": [
        {
          "internalType": "string",
          "name": "",
          "type": "string"
        }
      ],
      "stateMutability": "pure",
      "type": "function"
    },
    {
      "inputs": [
        {
          "internalType": "uint80",
          "name": "_roundId",
          "type": "uint80"
        }
      ],
      "name": "getRoundData",
      "outputs": [
        {
          "internalType": "uint80",
          "name": "roundId",
          "type": "uint80"
        },
        {
          "internalType": "int256",
          "name": "answer",
          "type": "int256"
        },
        {
          "internalType": "uint256",
          "name": "startedAt",
          "type": "uint256"
        },
        {
          "internalType": "uint256",
          "name": "updatedAt",
          "type": "uint256"
        },
        {
          "internalType": "uint80",
          "name": "answeredInRound",
          "type": "uint80"
        }
      ],
      "stateMutability": "pure",
      "type": "function"
    },
    {
      "inputs": [],
      "name": "latestRoundData",
      "outputs": [
        {
          "internalType": "uint80",
          "name": "roundId",
          "type": "uint80"
        },
        {
          "internalType": "int256",
          "name": "answer",
          "type": "int256"
        },
        {
          "internalType": "uint256",
          "name": "startedAt",
          "type": "uint256"
        },
        {
          "internalType": "uint256",
          "name": "updatedAt",
          "type": "uint256"
        },
        {
          "internalType": "uint80",
          "name": "answeredInRound",
          "type": "uint80"
        }
      ],
      "stateMutability": "view",
      "type": "function"
    },
    {
      "inputs": [],
      "name": "version",
      "outputs": [
        {
          "internalType": "uint256",
          "name": "",
          "type": "uint256"
        }
      ],
      "stateMutability": "pure",
      "type": "function"
    }
  ],
  "transactionHash": "0x86b8cbd0e0406acb41c84a34198fd8a6175f122516f7d354677056aed6cb06ea",
  "args": [
    10,
    18
  ],
  "numDeployments": 4,
  "solcInputHash": "125f2c6260893d6423adafe7393e1f22",
  "bytecode": "0x608060405234801561001057600080fd5b5060405161025c38038061025c83398101604081905261002f9161004d565b6000919091556001805460ff191660ff909216919091179055610083565b6000806040838503121561006057600080fd5b82519150602083015160ff8116811461007857600080fd5b809150509250929050565b6101ca806100926000396000f3fe608060405234801561001057600080fd5b50600436106100575760003560e01c8063313ce5671461005c57806354fd4d50146100765780637284e416146100855780639a6fc8f5146100b6578063feaf968c14610107575b600080fd5b60015460405160ff90911681526020015b60405180910390f35b6040516000815260200161006d565b604080518082018252600f81526e26b7b1b59020b3b3b932b3b0ba37b960891b6020820152905161006d9190610113565b6100d06100c4366004610161565b90600090819081908190565b6040805169ffffffffffffffffffff968716815260208101959095528401929092526060830152909116608082015260a00161006d565b600080548180806100d0565b600060208083528351808285015260005b8181101561014057858101830151858201604001528201610124565b506000604082860101526040601f19601f8301168501019250505092915050565b60006020828403121561017357600080fd5b813569ffffffffffffffffffff8116811461018d57600080fd5b939250505056fea26469706673582212206441a6f2c5223877bd9a66f7a6f7f07b337889c4d2f364e840d6986b029042bb64736f6c63430008110033",
  "devdoc": {
    "kind": "dev",
    "methods": {},
    "version": 1
  },
  "userdoc": {
    "kind": "user",
    "methods": {},
    "version": 1
  },
  "storageLayout": {
    "storage": [
      {
        "astId": 52,
        "contract": "contracts/MockAggregator.sol:MockAggregator",
        "label": "price",
        "offset": 0,
        "slot": "0",
        "type": "t_int256"
      },
      {
        "astId": 54,
        "contract": "contracts/MockAggregator.sol:MockAggregator",
        "label": "dec",
        "offset": 0,
        "slot": "1",
        "type": "t_uint8"
      }
    ],
    "types": {
      "t_int256": {
        "encoding": "inplace",
        "label": "int256",
        "numberOfBytes": "32"
      },
      "t_uint8": {
        "encoding": "inplace",
        "label": "uint8",
        "numberOfBytes": "1"
      }
    }
  }
}